:100000000C9434000C9446000C9446000C9446006A
:100010000C9446000C9446000C9446000C94460048
:100020000C9446000C9446000C9446000C94460038
:100030000C9446000C9448000C9446000C94460026
:100040000C9446000C9446000C9446000C94460018
:100050000C9446000C9446000C9446000C94460008
:100060000C9446000C94460011241FBECFEFD8E03C
:10007000DEBFCDBF21E0A0E0B1E001C01D92A13004
:10008000B207E1F70E9453000C9468000C94000042
:100090001F920F920FB60F9211241D9A0F900FBE50
:1000A0000F901F901895809100018F5F8093000141
:1000B000259AE1E8F0E08081826080838081816020
:1000C0008083EFE6F0E08081816080837894FFCFC9
:0400D000F894FFCFD2
:00000001FF
